:100000000C942D000C947F010C9455000C94550019
:100010000C9455000C9455000C9455000C9455000C
:100020000C9455000C9455000C9455000C945500FC
:100030000C9455000C94B7000C9455000C9455008A
:100040000C9455000C9455000C9455000C945500DC
:100050000C9455000101AC020A0111241FBECFE52A
:10006000D8E0DEBFCDBF10E0A0E6B0E0E2EEF5E004
:1000700002C005900D92AA36B107D9F720E0AAE692
:10008000B0E001C01D92AB3EB207E1F710E0C8E559
:10009000D0E004C02297FE010E94E002C435D107DF
:1000A000C9F70E940C010C94E4020C940000FC01BE
:1000B0001082118220E030E0FC01E20FF31F128277
:1000C0002F5F3F4F24373105B9F70895FC01808138
:1000D000DB019C91DF01A80FB11D12969C938F5FED
:1000E00064E70E94B0029083CF010895FC019181E2
:1000F000DF01A90FB11D12962C91892F8F5F64E744
:100100000E94B0029183822F0895DB01CA018E56AE
:100110009109A109B1098339914CA140B10510F5AC
:1001200025502530F8F49A01AB0184E0220F331FEB
:10013000441F551F8A95D1F760E070E488E390E092
:100140000E94BC022150310941095109BB2757FDCA
:10015000BA95A52F942F832F80BD29B98CE98AB930
:1001600086E880BD08955D9BFECF6CB908951F920F
:100170000F920FB60F9211248F93EF93FF93E0919C
:100180006C008CB1F0E0E359FF4F808380916D00EB
:10019000833511F0833741F5809173008D3021F55F
:1001A00080916C008630D0F41FC010926D001092C8
:1001B0006E0010926F0010927000109271001092F9
:1001C00072001092730010926C0010926B0011C0BC
:1001D00080916C008F5F80936C000BC081E08093F6
:1001E0006B0010926C0005C080916C008630E8F6C0
:1001F000EFCFFF91EF918F910F900FBE0F901F9057
:10020000189528E040E855E260E070E08AE690E06A
:100210000C9485001AB80895CF93DF93CDB7DEB75D
:10022000C857D1090FB6F894DEBF0FBECDBFEE247C
:10023000E394F12CEC0EFD1EC7010E949B018E0180
:1002400008581F4F28E040E855E260E070E0C80120
:100250000E948500C7010E94A601682F605DC80149
:100260000E94B30060E2C8010E94B30060E670E043
:10027000C7010E948D02C7010E94A601682F605D20
:10028000C8010E94B30060E2C8010E94B30065E6A5
:1002900070E0C7010E946E02C7010E94A601682F8C
:1002A000605DC8010E94B3006AE0C8010E94B3000B
:1002B000C7010E94C30181110AC0C7010E94A601A3
:1002C000882341F0C7010E94AB016AE001C0682F9A
:1002D000C801ECCF1FEF17BB8FE788BBC7010E9497
:1002E000B4012FEF8FE398E3215080409040E1F775
:1002F00000C00000C7010E94BF0118BBFFCF1F92C2
:100300000F920FB60F9211242F938F939F9318BAC9
:100310002FEF8FEC92E0215080409040E1F700C039
:1003200000008FE788BB9F918F912F910F900FBE98
:100330000F901F901895CF93DF93EC010E94570008
:10034000CA58DF4F1882DF91CF9108958A589F4F86
:10035000FC0180810895FC01EA58FF4F80818823C9
:1003600011F08150808308958BB780648BBF85B76F
:10037000816085BF85B78D7F85BF789408958BB7E1
:100380008F7B8BBF08950C947600FB01403319F4EA
:10039000408381E304C0413319F4408380E38183C7
:1003A0003296CF010895FF920F931F93CF93DF935F
:1003B0008C01FA0181E380838183828390E39383BC
:1003C000948385839683878380879187DB018C91D3
:1003D000813611F0813469F480E3828791E3938759
:1003E00094878587CF010E96EB01219624E0F22EAB
:1003F0000CC0843629F0843419F0CA010A96F4CF6F
:1004000091E3928780E38387EBCF4991BC01C801D8
:100410000E94C501FA94C9F7FC0186E090E391932C
:100420008150E9F7DF91CF911F910F91FF900895CF
:100430009F92AF92BF92CF92DF92EF92FF920F9373
:100440001F93CF93DF93CDB7DEB76D970FB6F894B8
:10045000DEBF0FBECDBF8C01EE24E394F12CEC0E79
:10046000FD1EA7010E94D30142E0B42E9E2CAF2CAA
:100470006E018DE1C80ED11C0CC0B701C8010E94ED
:1004800066008FEFE81AF80AEC14FD04B1F7BA948D
:1004900019F0E92CFA2CF1CF1D8EBE01635E7F4F5F
:1004A000C8010E946600F801EA58FF4F80818F5F03
:1004B0008083C8010E94B4016D960FB6F894DEBF28
:1004C0000FBECDBFDF91CF911F910F91FF90EF90A5
:1004D000DF90CF90BF90AF909F900895CF93DF9320
:1004E00000D000D01F92CDB7DEB7FB0124E62983F0
:1004F00020812A8321812B8322812C8323812D83B8
:10050000BE016F5F7F4F0E9418020F900F900F90F7
:100510000F900F90DF91CF910895CF93DF9300D08C
:1005200000D01F92CDB7DEB7FB0121E629832081E1
:100530002A8321812B8322812C8323812D83BE0159
:100540006F5F7F4F0E9418020F900F900F900F90D7
:100550000F90DF91CF91089584E790E00C949B0178
:10056000991B79E004C0991F961708F0961B881F05
:100570007A95C9F780950895A1E21A2EAA1BBB1B94
:10058000FD010DC0AA1FBB1FEE1FFF1FA217B3075F
:10059000E407F50720F0A21BB30BE40BF50B661F75
:1005A000771F881F991F1A9469F760957095809539
:1005B00090959B01AC01BD01CF010895EE0FFF1F87
:1005C0000590F491E02D099410E0C8E5D0E004C056
:1005D000FE010E94E0022296CA35D107C9F7F894BD
:0205E000FFCF4B
:0A05E200303130310030303131008B
:00000001FF
