:100000000C9430000C9458000C9458000C94A100EF
:100010000C9458000C9458000C9458000C94580000
:100020000C9458000C9458000C9458000C94FA004E
:100030000C9458000C94DE010C9458000C94580059
:100040000C9458000C9458000C9458000C945800D0
:100050000C945800C80020012802CC002401310271
:1000600011241FBECFE5D8E0DEBFCDBF10E0A0E673
:10007000B0E0E6EFF4E002C005900D92A237B107C0
:10008000D9F720E0A2E7B0E001C01D92A138B20785
:10009000E1F710E0CAE5D0E004C02297FE010E941B
:1000A0006A02C435D107C9F70E945A000C946E0247
:1000B0000C940000CF93DF9300D000D01F92CDB7F7
:1000C000DEB7CE0105960E94280142E750E0BE014E
:1000D0006B5F7F4FCE0101960E943302CE010196E5
:1000E0000E943C026AE087E790E00E94DA01FFCFBD
:1000F0008BB78F7D8BBF0895CF93C62FFC01608394
:10010000818192810E94410285E790E0CC2319F021
:10011000CF910C94D000CF910C94DA0060E00E9453
:100120007C00BA988BB780628BBF84B7806484BF31
:1001300078940895FC0180810895FC0172836183A5
:1001400008951F920F920FB60F9211242F933F9391
:100150004F935F936F937F938F939F93AF93BF93CF
:10016000EF93FF9361E082E790E00E947C00FF91B3
:10017000EF91BF91AF919F918F917F916F915F911F
:100180004F913F912F910F900FBE0F901F90189598
:1001900082E790E00C948E0082E790E00C94780067
:1001A00085E183BF89B7816089BF89B78D7F89BFAA
:1001B0007894089513BE89B78C7F89BF0895FC0198
:1001C000118210820C94DA00CF93DF93EC01288126
:1001D00039812F5F3F4F398328832B34334038F0E8
:1001E00060E082E790E00E947C0019821882DF9133
:1001F000CF9108951F920F920FB60F9211242F9353
:100200003F934F935F936F937F938F939F93AF939E
:10021000BF93EF93FF9385E790E00E94E400FF9186
:10022000EF91BF91AF919F918F917F916F915F916E
:100230004F913F912F910F900FBE0F901F901895E7
:1002400085E790E00C94DF0085E790E00C94DA00FD
:100250000895FA0183E58193DB0180E09D919193FC
:100260008F5F8530D9F78DE0FA01868308951F935B
:10027000CF93DF93EB0117E0699187E790E00E944D
:10028000DA011150C9F7DF91CF911F9108950F93B3
:100290001F93CF93DF93CDB7DEB72D970FB6F894AA
:1002A000DEBF0FBECDBF8C0186E0E6E6F0E0DE01EA
:1002B000189601900D928A95E1F7AE014F5F5F4F5E
:1002C000BE01685F7F4FC8010E942901BE016F5FB8
:1002D0007F4FC8010E9437012D960FB6F894DEBFFC
:1002E0000FBECDBFDF91CF911F910F9108950F9356
:1002F0001F93CF93DF93CDB7DEB72D970FB6F8944A
:10030000DEBF0FBECDBF8C0186E0ECE6F0E0DE0183
:10031000189601900D928A95E1F7AE014F5F5F4FFD
:10032000BE01685F7F4FC8010E942901BE016F5F57
:100330007F4FC8010E9437012D960FB6F894DEBF9B
:100340000FBECDBFDF91CF911F910F910895611125
:100350000C9477010C944701DB01CA018E56910978
:10036000A109B1098339914CA140B10510F525507F
:100370002530F8F49A01AB0184E0220F331F441FAB
:10038000551F8A95D1F760E070E488E390E00E9401
:1003900046022150310941095109BB2757FDBA9541
:1003A000A52F942F832F80BD29B98CE98AB986E8BF
:1003B00080BD08955D9BFECF6CB908951F920F928A
:1003C0000FB60F9211248F93EF93FF93E091790072
:1003D0008CB1F0E0E658FF4F808380917A0083353E
:1003E00011F0833741F5809180008D3021F58091A7
:1003F00079008630D0F41FC010927A0010927B00F2
:1004000010927C0010927D0010927E0010927F006E
:1004100010928000109279001092780011C08091A3
:1004200079008F5F809379000BC081E08093780022
:100430001092790005C0809179008630E8F6EFCF00
:10044000FF91EF918F910F900FBE0F901F90189515
:1004500028E040E855E260E070E087E790E00C9427
:10046000AC011AB80895FC01CA015183408373831B
:100470006283BF010C949D00FC01808191810C94EA
:100480009A00FC01828193810C94A701A1E21A2EAB
:10049000AA1BBB1BFD010DC0AA1FBB1FEE1FFF1F28
:1004A000A217B307E407F50720F0A21BB30BE40B78
:1004B000F50B661F771F881F991F1A9469F76095BF
:1004C0007095809590959B01AC01BD01CF01089579
:1004D000EE0FFF1F0590F491E02D099410E0CAE59E
:1004E000D0E004C0FE010E946A022296C036D10705
:0604F000C9F7F894FFCFEC
:1004F60042393939390046393939390054393939A7
:020506003900BA
:00000001FF
