:100000000C9435000C94F9040C94D7020C94B600AF
:100010000C945D000C945D000C945D000C945D00EC
:100020000C945D000C945D000C945D000C940F0129
:100030000C945D000C9459030C945D000C945D00CD
:100040000C945D000C945D000C945D000C945D00BC
:100050000C945D00DD003501FD021F03A303ED04D8
:10006000E100390101032303AC0311241FBECFE5D6
:10007000D8E0DEBFCDBF10E0A0E6B0E0E2E1FBE0FB
:1000800002C005900D92AE39B107D9F721E0AEE973
:10009000B0E001C01D92A732B207E1F710E0C0E660
:1000A000D0E004C02297FE010E947805C435D10734
:1000B000C9F70E943D010C947C050C940000FC01E2
:1000C0001082118220E030E0FC01E20FF31F128267
:1000D0002F5F3F4F24373105B9F70895FC01808128
:1000E000DB019C91DF01A80FB11D12969C938F5FDD
:1000F00064E70E9448059083CF010895FC01918137
:10010000DF01A90FB11D12962C91892F8F5F64E733
:100110000E9448059183822F08958BB78F7D8BBFF6
:100120000895CF93C62FFC016083818192810E9444
:10013000BC0381EA90E0CC2319F0CF910C94E50048
:10014000CF910C94EF0060E00E949100BA988BB7B9
:1001500080628BBF84B7806484BF78940895FC016B
:1001600080810895FC017283618308951F920F922C
:100170000FB60F9211242F933F934F935F936F937A
:100180007F938F939F93AF93BF93EF93FF9361E020
:100190008EE990E00E949100FF91EF91BF91AF91A5
:1001A0009F918F917F916F915F914F913F912F918F
:1001B0000F900FBE0F901F9018958EE990E00C9451
:1001C000A3008EE990E00C948D0085E183BF89B790
:1001D000816089BF89B78D7F89BF7894089513BEE8
:1001E00089B78C7F89BF0895FC01118210820C941D
:1001F000EF00CF93DF93EC01288139812F5F3F4FD0
:10020000398328832A37304138F060E08EE990E066
:100210000E94910019821882DF91CF9108951F9258
:100220000F920FB60F9211242F933F934F935F932A
:100230006F937F938F939F93AF93BF93EF93FF93AE
:1002400081EA90E00E94F900FF91EF91BF91AF9198
:100250009F918F917F916F915F914F913F912F91DE
:100260000F900FBE0F901F90189581EA90E00C94AC
:10027000F40081EA90E00C94EF00CF93DF93CDB7C8
:10028000DEB769970FB6F894DEBF0FBECDBFCE01C3
:1002900048960E94F1048E01095E1F4FC8010E941A
:1002A000BA017E018DE0E80EF11C4EE950E0B80184
:1002B000C7010E94AE035E0185E1A80EB11C60EB90
:1002C00070E0C5010E94C1036E0183E1C80ED11C1C
:1002D00060EB70E0C6010E94CA03B801CE014196EE
:1002E0000E94D303BE016F5E7F4F83EA90E00E94BD
:1002F000D3028FEF84BB85BB8DEF982E8A2C7B2C8D
:100300009CEFB92E2EEFA22E8091A7008823E1F357
:10031000BE016F5F7F4FC8010E94A502282FAE016A
:10032000485F5F4FBE016F5F7F4FC801298F0E94FA
:10033000D901298D223069F02330A1F0213021F735
:10034000A5BAC7010E94B703682FC8010E94940292
:10035000DBCF95BABE01685F7F4F882D972D0E9435
:10036000C503D2CFB5BABE01685F7F4FC6010E94F8
:10037000CE03CACF0895FA0183E58193DB0180E0C3
:100380009D9191938F5F8530D9F78DE0FA01868337
:10039000089520E005C0FA01E80FF91F30832F5FB0
:1003A000822F90E0FB01E80FF91F31813D3099F772
:1003B00008950F931F93CF93DF93EB018A01288158
:1003C000233711F0233521F4AE01BE010E94C9018B
:1003D0002196F80184E0999191938150E1F7DF91A2
:1003E000CF911F910F9108951F93CF93DF93EB014E
:1003F00017E0699186EA90E00E9455031150C9F711
:10040000DF91CF911F9108950F931F93CF93DF93A7
:10041000CDB7DEB72D970FB6F894DEBF0FBECDBFB8
:100420008C0186E0E0E6F0E0DE01189601900D9286
:100430008A95E1F7AE014F5F5F4FBE01685F7F4F66
:10044000C8010E94BB01BE016F5F7F4FC8010E94BF
:10045000F4012D960FB6F894DEBF0FBECDBFDF912D
:10046000CF911F910F9108950F931F93CF93DF9317
:10047000CDB7DEB72D970FB6F894DEBF0FBECDBF58
:100480008C0186E0E6E6F0E0DE01189601900D9220
:100490008A95E1F7AE014F5F5F4FBE01685F7F4F06
:1004A000C8010E94BB01BE016F5F7F4FC8010E945F
:1004B000F4012D960FB6F894DEBF0FBECDBFDF91CD
:1004C000CF911F910F9108950F931F93CF93DF93B7
:1004D000CDB7DEB72D970FB6F894DEBF0FBECDBFF8
:1004E0008C0186E0ECE6F0E0DE01189601900D92BA
:1004F0008A95E1F7AE014F5F5F4FBE01685F7F4FA6
:10050000C8010E94BB01BE016F5F7F4FC8010E94FE
:10051000F4012D960FB6F894DEBF0FBECDBFDF916C
:10052000CF911F910F91089561110C9464020C9466
:100530003402DB01EC91E154EC3228F4F0E0EE58A7
:10054000FF4F8081089580E008950F931F93CF930C
:10055000DF93EC018B018091A7008823E1F3A801D0
:1005600069EA70E0CE010E94C9011092A7001092C2
:10057000A800B801CE01DF91CF911F910F910C948B
:1005800099028B988BB780688BBF85B78C6085BFCD
:10059000789408958BB78F778BBF0895FC01808185
:1005A00091810C94D703FC017183608308951F929D
:1005B0000F920FB60F9211242F933F934F935F9397
:1005C0006F937F938F939F93AF93BF93EF93FF931B
:1005D00083EA90E00E94CE02FF91EF91BF91AF912C
:1005E0009F918F917F916F915F914F913F912F914B
:1005F0000F900FBE0F901F90189583EA90E00C9417
:10060000C10283EA90E00C94CA0280E281BB80E4DC
:100610008FBD88E08EBD8EE090E09BBD8ABD0895C1
:100620001FBC88E08EBDC598089580E48FBD89E029
:100630008EBD08951FBC88E08EBDC598089585EADB
:1006400090E00C94050385EA90E00C941003DB0124
:10065000CA018E569109A109B1098339914CA14073
:10066000B10510F525502530F8F49A01AB0184E06E
:10067000220F331F441F551F8A95D1F760E070E4A5
:1006800088E390E00E945405215031094109510945
:10069000BB2757FDBA95A52F942F832F80BD29B96D
:1006A0008CE98AB986E880BD08955D9BFECF6CB960
:1006B00008951F920F920FB60F9211248F93EF930C
:1006C000FF93E091A8008CB1F0E0E755FF4F8083E5
:1006D0008091A900833511F0833741F58091AF00F7
:1006E0008D3021F58091A8008630D0F41FC0109283
:1006F000A9001092AA001092AB001092AC001092C8
:10070000AD001092AE001092AF001092A8001092AF
:10071000A70011C08091A8008F5F8093A8000BC034
:1007200081E08093A7001092A80005C08091A800E6
:100730008630E8F6EFCFFF91EF918F910F900FBECB
:100740000F901F90189528E040E855E260E070E0B7
:1007500086EA90E00C9427031AB80895FC01CA01B8
:100760005183408373836283BF010C94B200FC0108
:10077000808191810C94AF00FC01828193810C9463
:100780009402FC01718360830895FC018081918152
:100790000C94CE04FC01718360830895FC01808178
:1007A00091810C94AF04FC01718360830895FC0176
:1007B000808191810C940402CF93DF93EC010E941D
:1007C0005F00CA58DF4F1882DF91CF9108958A5891
:1007D0009F4FFC0180810895FC01EA58FF4F808102
:1007E000882311F08150808308958BB780648BBF7C
:1007F00085B7816085BF85B78D7F85BF7894089563
:100800008BB78F7B8BBF08950C947E00FB01403328
:1008100019F4408381E304C0413319F4408380E339
:1008200081833296CF010895FF920F931F93CF9348
:10083000DF938C01FA0181E380838183828390E3DB
:100840009383948385839683878380879187DB0155
:100850008C91813611F0813469F480E3828791E3D1
:10086000938794878587CF010E96EB01219624E02C
:10087000F22E0CC0843629F0843419F0CA010A968D
:10088000F4CF91E3928780E38387EBCF4991BC015A
:10089000C8010E940604FA94C9F7FC0186E090E3BF
:1008A00091938150E9F7DF91CF911F910F91FF90C4
:1008B00008959F92AF92BF92CF92DF92EF92FF92F4
:1008C0000F931F93CF93DF93CDB7DEB76D970FB61E
:1008D000F894DEBF0FBECDBF8C01EE24E394F12C63
:1008E000EC0EFD1EA7010E94140442E0B42E9E2CC3
:1008F000AF2C6E018DE1C80ED11C0CC0B701C80130
:100900000E946E008FEFE81AF80AEC14FD04B1F7AC
:10091000BA9419F0E92CFA2CF1CF1D8EBE01635E5A
:100920007F4FC8010E946E00F801EA58FF4F808196
:100930008F5F8083C8010E94F5036D960FB6F8940F
:10094000DEBF0FBECDBFDF91CF911F910F91FF9002
:10095000EF90DF90CF90BF90AF909F900895CF938E
:10096000DF9300D000D01F92CDB7DEB7FB0124E6A5
:10097000298320812A8321812B8322812C83238137
:100980002D83BE016F5F7F4F0E9459040F900F901F
:100990000F900F900F90DF91CF910895CF93DF9339
:1009A00000D000D01F92CDB7DEB7FB0121E629832E
:1009B00020812A8321812B8322812C8323812D83F3
:1009C000BE016F5F7F4F0E9459040F900F900F90F0
:1009D0000F900F90DF91CF91089580EB90E00C94F1
:1009E000DC038BB780648BBF85B7816085BF78944B
:1009F00008951F920F920FB60F9211242F933F93D9
:100A00004F935F936F937F938F939F93AF93BF9316
:100A1000EF93FF9380EB90E00E94E703882319F1A6
:100A200080EB90E00E940404803331F489E993E084
:100A30000197F1F700C01BC0813371F485EA90E0A3
:100A40000E94150389E993E00197F1F700C085EA58
:100A500090E00E941A030BC0811109C080EB90E066
:100A60000E94EC0304C080EB90E00E940004FF9120
:100A7000EF91BF91AF919F918F917F916F915F9116
:100A80004F913F912F910F900FBE0F901F9018958F
:100A9000991B79E004C0991F961708F0961B881FD0
:100AA0007A95C9F780950895A1E21A2EAA1BBB1B5F
:100AB000FD010DC0AA1FBB1FEE1FFF1FA217B3072A
:100AC000E407F50720F0A21BB30BE40BF50B661F40
:100AD000771F881F991F1A9469F760957095809504
:100AE00090959B01AC01BD01CF010895EE0FFF1F52
:100AF0000590F491E02D099410E0C0E6D0E004C028
:100B0000FE010E9478052296CA36D107C9F7F894EB
:020B1000FFCF15
:100B12004239393939004639393939005439393984
:100B22003900020000030000000000000001000084
:100B320000000000000000000000000000000000B3
:0E0B420000000200000300000000000000019F
:00000001FF
