S01F00005043205253323332494620546573742070726F6772616D2E73726563AF
S11300000C942C000C9454000C9454000C94540044
S11300100C9454000C9454000C9454000C9454000C
S11300200C9454000C9454000C9454000C945400FC
S11300300C9454000C9478010C9454000C945400C7
S11300400C9454000C9454000C9454000C945400DC
S11300500C945400C201CB0111241FBECFE5D8E09B
S1130060DEBFCDBF10E0A0E6B0E0E4E0F4E002C003
S113007005900D92A237B107D9F720E0A2E7B0E0CE
S113008001C01D92AC37B207E1F710E0C6E5D0E03D
S113009004C02297FE010E94F101C435D107C9F7BB
S11300A00E9456000C94F5010C940000CF93DF934A
S11300B01F92CDB7DEB71ABA8E010F5F1F4FC8016A
S11300C00E94920089B38E3F61F4C8010E94B1007E
S11300D02FEF8FE39BE0215080409040E1F700C078
S11300E0000089B38D3F69F461E0C8010E944101B9
S11300F02FEF8FE39BE0215080409040E1F700C058
S1130100000089B38B3FF1F660E0C8010E94410111
S11301102FEF8FE39BE0215080409040E1F700C037
S11301200000D0CF0895FA0183E58193DB0180E0DC
S11301309D9191938F5F8530D9F78DE0FA01868385
S113014008951F93CF93DF93EB0117E0699182E742
S113015090E00E9474011150C9F7DF91CF911F9173
S113016008950F931F93CF93DF93CDB7DEB72D97E9
S11301700FB6F894DEBF0FBECDBF8C0186E0E0E67B
S1130180F0E0DE01189601900D928A95E1F7AE0138
S11301904F5F5F4FBE01685F7F4FC8010E949300AD
S11301A0BE016F5F7F4FC8010E94A1002D960FB65C
S11301B0F894DEBF0FBECDBFDF91CF911F910F9199
S11301C008950F931F93CF93DF93CDB7DEB72D9789
S11301D00FB6F894DEBF0FBECDBF8C0186E0E6E615
S11301E0F0E0DE01189601900D928A95E1F7AE01D8
S11301F04F5F5F4FBE01685F7F4FC8010E9493004D
S1130200BE016F5F7F4FC8010E94A1002D960FB6FB
S1130210F894DEBF0FBECDBFDF91CF911F910F9138
S113022008950F931F93CF93DF93CDB7DEB72D9728
S11302300FB6F894DEBF0FBECDBF8C0186E0ECE6AE
S1130240F0E0DE01189601900D928A95E1F7AE0177
S11302504F5F5F4FBE01685F7F4FC8010E949300EC
S1130260BE016F5F7F4FC8010E94A1002D960FB69B
S1130270F894DEBF0FBECDBFDF91CF911F910F91D8
S1130280089561110C9411010C94E100DB01CA0181
S11302908E569109A109B1098339914CA140B10548
S11302A010F525502530F8F49A01AB0184E0220FB3
S11302B0331F441F551F8A95D1F760E070E488E32B
S11302C090E00E94CD012150310941095109BB2719
S11302D057FDBA95A52F942F832F80BD29B98CE99A
S11302E08AB986E880BD08955D9BFECF6CB90895F8
S11302F01F920F920FB60F9211248F93EF93FF93D7
S1130300E09174008CB1F0E0EB58FF4F8083809152
S11303107500833511F0833741F580917B008D3072
S113032021F5809174008630D0F41FC010927500BE
S11303301092760010927700109278001092790053
S113034010927A0010927B00109274001092730045
S113035011C0809174008F5F809374000BC081E0A2
S1130360809373001092740005C0809174008630ED
S1130370E8F6EFCFFF91EF918F910F900FBE0F90A2
S11303801F90189528E040E855E260E070E082E7AD
S113039090E00C9446011AB80895A1E21A2EAA1B03
S11303A0BB1BFD010DC0AA1FBB1FEE1FFF1FA21721
S11303B0B307E407F50720F0A21BB30BE40BF50B1E
S11303C0661F771F881F991F1A9469F760957095A7
S11303D0809590959B01AC01BD01CF010895EE0F6E
S11303E0FF1F0590F491E02D099410E0C6E5D0E0DC
S11303F004C0FE010E94F1012296C835D107C9F755
S1070400F894FFCF9A
S11304044239393939004639393939005439393995
S10504143900A9
S9030000FC
