S00D000054696D65722E7372656316
S11300000C942C000C9449000C9449000C94490065
S11300100C9449000C9449000C9449000C94490038
S11300200C9449000C9449000C9449000C94490028
S11300300C9449000C9449000C9449000C94490018
S11300400C9449000C9449000C9449000C94490008
S11300500C94490089008D0011241FBECFE5D8E01F
S1130060DEBFCDBF20E0A0E6B0E001C01D92A13606
S1130070B207E1F710E0C6E5D0E004C02297FE0124
S11300800E949300C435D107C9F70E944B000C9419
S113009097000C940000CF93DF931F92CDB7DEB787
S11300A08E010F5F1F4FC8010E946F00C8010E949C
S11300B07F002FEF8FE39BE0215080409040E1F7D9
S11300C000C00000C8010E9484002FEF8FE39BE072
S11300D0215080409040E1F700C00000E7CF80E26B
S11300E081BB80E48FBD88E08EBD8EE090E09BBD37
S11300F08ABD08951FBC88E08EBDC598089580E42C
S11301008FBD89E08EBD08951FBC88E08EBDC59863
S1130110089580E690E00C946F0080E690E00C94E3
S11301207A00EE0FFF1F0590F491E02D099410E082
S1130130C6E5D0E004C0FE010E9493002296C835B3
S10B0140D107C9F7F894FFCFC1
S9030000FC
