:100000000C942E000C9456000C94C3000C945600D3
:100010000C9456000C9456000C9456000C94560008
:100020000C9456000C9456000C9456000C945600F8
:100030000C9456000C9423010C9456000C9456001A
:100040000C9456000C9456000C9456000C945600D8
:100050000C945600E9006D01ED00760111241FBEDD
:10006000CFE5D8E0DEBFCDBF10E0A0E6B0E0E4E62B
:10007000F3E002C005900D92A237B107D9F720E056
:10008000A2E7B0E001C01D92AE37B207E1F710E081
:10009000C8E5D0E004C02297FE010E94A101C4354A
:1000A000D107C9F70E94A7000C94A5010C94000089
:1000B0000895FA0183E58193DB0180E09D9191939E
:1000C0008F5F8530D9F78DE0FA01868308951F93FD
:1000D000CF93DF93EB0117E0699184E790E00E94F2
:1000E0001F011150C9F7DF91CF911F9108950F9310
:1000F0001F93CF93DF93CDB7DEB72D970FB6F8944C
:10010000DEBF0FBECDBF8C0186E0E0E6F0E0DE0191
:10011000189601900D928A95E1F7AE014F5F5F4FFF
:10012000BE01685F7F4FC8010E945900BE016F5F2A
:100130007F4FC8010E9467002D960FB6F894DEBF6E
:100140000FBECDBFDF91CF911F910F910895CF9337
:10015000DF931F92CDB7DEB7CE0101960E94580003
:10016000FFCF8B988BB780688BBF85B78C6085BFBE
:10017000789408958BB78F778BBF0895FC018081A9
:1001800091810C9478011F920F920FB60F92112457
:100190002F933F934F935F936F937F938F939F938F
:1001A000AF93BF93EF93FF9382E790E00E94BE006E
:1001B000FF91EF91BF91AF919F918F917F916F913F
:1001C0005F914F913F912F910F900FBE0F901F9015
:1001D000189582E790E00C94B10082E790E00C94CF
:1001E000BA00DB01CA018E569109A109B109833910
:1001F000914CA140B10510F525502530F8F49A0135
:10020000AB0184E0220F331F441F551F8A95D1F79D
:1002100060E070E488E390E00E947D0121503109A4
:1002200041095109BB2757FDBA95A52F942F832F5C
:1002300080BD29B98CE98AB986E880BD08955D9BA7
:10024000FECF6CB908951F920F920FB60F92112432
:100250008F93EF93FF93E09176008CB1F0E0E95833
:10026000FF4F808380917700833511F0833741F50C
:1002700080917D008D3021F5809176008630D0F41C
:100280001FC010927700109278001092790010929F
:100290007A0010927B0010927C0010927D001092E8
:1002A00076001092750011C0809176008F5F809368
:1002B00076000BC081E0809375001092760005C037
:1002C000809176008630E8F6EFCFFF91EF918F9125
:1002D0000F900FBE0F901F90189528E040E855E250
:1002E00060E070E084E790E00C94F1001AB80895A3
:1002F000FC01808191810C947700A1E21A2EAA1B47
:10030000BB1BFD010DC0AA1FBB1FEE1FFF1FA217C5
:10031000B307E407F50720F0A21BB30BE40BF50BC2
:10032000661F771F881F991F1A9469F7609570954B
:10033000809590959B01AC01BD01CF010895EE0F12
:10034000FF1F0590F491E02D099410E0C8E5D0E07E
:1003500004C0FE010E94A1012296CC35D107C9F745
:04036000F894FFCF3F
:10036400423939393900463939393900543939393A
:0203740039004E
:00000001FF
