:100000000C942A000C9436000C9434000C943400A8
:100010000C9434000C9434000C9434000C94340090
:100020000C9434000C9434000C9434000C94340080
:100030000C9434000C9434000C9434000C94340070
:100040000C9434000C9434000C9434000C94340060
:100050000C94340011241FBECFE5D8E0DEBFCDBF25
:100060000E944D000C945F000C9400001F920F92B0
:100070000FB60F9211248F939F9389E08EBD89E96B
:1000800093E00197F1F700C088E08EBD9F918F91BA
:100090000F900FBE0F901F90189580E281BB80E4F7
:1000A0008FBD88E08EBD8EE090E09BBD8ABD7894C8
:1000B0008BB780648BBF85B7816085BFFFCFF89415
:0200C000FFCF70
:00000001FF
