S00F0000525332333249462E737265634A
S11300000C942C000C9454000C9454000C94540044
S11300100C9454000C9454000C9454000C9454000C
S11300200C9454000C9454000C9454000C945400FC
S11300300C9454000C94E5010C9454000C9454005A
S11300400C9454000C9454000C9454000C945400DC
S11300500C9454002F02380211241FBECFE5D8E0BF
S1130060DEBFCDBF10E0A0E6B0E0EEEDF4E002C0EC
S113007005900D92AE39B107D9F720E0AEE9B0E0B2
S113008001C01D92A83AB207E1F710E0C6E5D0E03E
S113009004C02297FE010E945E02C435D107C9F74D
S11300A00E9456000C9462020C940000CF93DF93DC
S11300B0CDB7DEB72D970FB6F894DEBF0FBECDBF18
S11300C08FEF87BB88BB78948E01035F1F4FC801F5
S11300D00E949300C8010E94DD0061E0C8010E94F3
S11300E06D0160E0C8010E946D01BE016F5F7F4F2A
S11300F0C8010E947E01982F909598BB825082304F
S1130100A0F7AE01485F5F4FBE016F5F7F4FC8012C
S11301100E94B2001C86BE01685F7F4F8EE990E0AA
S11301200E94CC01E2CF0895FA0183E58193DB01BB
S113013080E09D9191938F5F8530D9F78DE0FA012E
S11301408683089520E005C0FA01E80FF91F308383
S11301502F5F822F90E0FB01E80FF91F31813D30C2
S113016099F708950F931F93CF93DF93EB018A01BF
S11301702881233711F0233521F4AE01BE010E94FA
S1130180A2002196F80184E0999191938150E1F7BE
S1130190DF91CF911F910F9108951F93CF93DF9318
S11301A0EB0117E069918EE990E00E94C8011150BB
S11301B0C9F7DF91CF911F9108950F931F93CF93A8
S11301C0DF93CDB7DEB72D970FB6F894DEBF0FBE21
S11301D0CDBF8C0186E0E0E6F0E0DE0118960190E8
S11301E00D928A95E1F7AE014F5F5F4FBE01685FE4
S11301F07F4FC8010E949400BE016F5F7F4FC8010A
S11302000E94CD002D960FB6F894DEBF0FBECDBF71
S1130210DF91CF911F910F9108950F931F93CF9367
S1130220DF93CDB7DEB72D970FB6F894DEBF0FBEC0
S1130230CDBF8C0186E0E6E6F0E0DE011896019081
S11302400D928A95E1F7AE014F5F5F4FBE01685F83
S11302507F4FC8010E949400BE016F5F7F4FC801A9
S11302600E94CD002D960FB6F894DEBF0FBECDBF11
S1130270DF91CF911F910F9108950F931F93CF9307
S1130280DF93CDB7DEB72D970FB6F894DEBF0FBE60
S1130290CDBF8C0186E0ECE6F0E0DE01189601901B
S11302A00D928A95E1F7AE014F5F5F4FBE01685F23
S11302B07F4FC8010E949400BE016F5F7F4FC80149
S11302C00E94CD002D960FB6F894DEBF0FBECDBFB1
S11302D0DF91CF911F910F91089561110C943D010D
S11302E00C940D01DB01EC91E154EC3228F4F0E0C4
S11302F0EE58FF4F8081089580E008950F931F9377
S1130300CF93DF93EC018B0180919F008823E1F36D
S1130310A80161EA70E0CE010E94A20010929F0041
S11303201092A000B801CE01DF91CF911F910F91DF
S11303300C947201DB01CA018E569109A109B1091D
S11303408339914CA140B10510F525502530F8F4BE
S11303509A01AB0184E0220F331F441F551F8A9575
S1130360D1F760E070E488E390E00E943A02215003
S1130370310941095109BB2757FDBA95A52F942F7F
S1130380832F80BD29B98CE98AB986E880BD089598
S11303905D9BFECF6CB90895FF920F931F93CF938B
S11303A0DF93EC018B01F12C04C0CE010E94C80143
S11303B0F394F801EF0DF11D60816111F6CFDF9127
S11303C0CF911F910F91FF9008951F920F920FB636
S11303D00F9211248F93EF93FF93E091A0008CB1BF
S11303E0F0E0EF55FF4F80838091A100833511F039
S11303F0833741F58091A7008D3021F58091A000CD
S11304008630D0F41FC01092A1001092A200109266
S1130410A3001092A4001092A5001092A6001092BE
S1130420A7001092A00010929F0011C08091A0001C
S11304308F5F8093A0000BC081E080939F00109297
S1130440A00005C08091A0008630E8F6EFCFFF91B0
S1130450EF918F910F900FBE0F901F90189528E089
S113046040E855E260E070E08EE990E00C949A0177
S11304701AB80895A1E21A2EAA1BBB1BFD010DC0D8
S1130480AA1FBB1FEE1FFF1FA217B307E407F50740
S113049020F0A21BB30BE40BF50B661F771F881F1C
S11304A0991F1A9469F760957095809590959B01B2
S11304B0AC01BD01CF010895EE0FFF1F0590F4912B
S11304C0E02D099410E0C6E5D0E004C0FE010E94CE
S11104D05E022296C835D107C9F7F894FFCF13
S11304DE42393939390046393939390054393939BB
S11304EE39000200000300000000000000010000BB
S11304FE00000000000000000000000000000000EA
S111050E0000020000030000000000000001D5
S9030000FC
