S01200004C6F67696E54696D65722E7372656318
S11300000C9430000C9458000C9458000C947C0010
S11300100C9458000C9458000C9458000C945800FC
S11300200C9458000C9458000C9458000C94DA006A
S11300300C9458000C94BD010C9458000C94580076
S11300400C9458000C9458000C9458000C945800CC
S11300500C945800A30000010702A7000401100239
S113006011241FBECFE5D8E0DEBFCDBF10E0A0E66F
S1130070B0E0E8E9F4E002C005900D92A237B107C0
S1130080D9F720E0A2E7B0E001C01D92A138B20781
S1130090E1F710E0CAE5D0E004C02297FE010E9417
S11300A03B02C435D107C9F70E94AB000C943F0250
S11300B00C9400008BB78F7D8BBF0895CF93C62F10
S11300C0FC016083818192810E94120285E790E0A5
S11300D0CC2319F0CF910C94B000CF910C94BA00BA
S11300E060E00E945E00BA988BB780628BBF84B7D1
S11300F0806484BF789408951F920F920FB60F9274
S113010011242F933F934F935F936F937F938F9318
S11301109F93AF93BF93EF93FF9361E082E790E0E7
S11301200E945E00FF91EF91BF91AF919F918F91DB
S11301307F916F915F914F913F912F910F900FBEDF
S11301400F901F90189582E790E00C94700082E75E
S113015090E00C945A0085E790E00E94B000FFCF35
S113016085E183BF89B7816089BF89B78D7F89BFE6
S11301707894089513BE89B78C7F89BF0895FC01D4
S1130180118210820C94BA00CF93DF93EC01288182
S113019039812F5F3F4F398328832B34334038F024
S11301A060E082E790E00E945E0019821882DF918D
S11301B0CF9108951F920F920FB60F9211242F938F
S11301C03F934F935F936F937F938F939F93AF93DB
S11301D0BF93EF93FF9385E790E00E94C400FF91E3
S11301E0EF91BF91AF919F918F917F916F915F91AB
S11301F04F913F912F910F900FBE0F901F90189524
S113020085E790E00C94BF0085E790E00C94BA0079
S1130210FA0183E58193DB0180E09D9191938F5FE7
S11302208530D9F78DE0FA01868308951F93CF9323
S1130230DF93EB0117E0699187E790E00E94B90131
S11302401150C9F7DF91CF911F9108950F931F9318
S1130250CF93DF93CDB7DEB72D970FB6F894DEBFFB
S11302600FBECDBF8C0186E0E6E6F0E0DE01189615
S113027001900D928A95E1F7AE014F5F5F4FBE0189
S1130280685F7F4FC8010E940801BE016F5F7F4F06
S1130290C8010E9416012D960FB6F894DEBF0FBE5A
S11302A0CDBFDF91CF911F910F9108950F931F93AD
S11302B0CF93DF93CDB7DEB72D970FB6F894DEBF9B
S11302C00FBECDBF8C0186E0ECE6F0E0DE011896AF
S11302D001900D928A95E1F7AE014F5F5F4FBE0129
S11302E0685F7F4FC8010E940801BE016F5F7F4FA6
S11302F0C8010E9416012D960FB6F894DEBF0FBEFA
S1130300CDBFDF91CF911F910F91089561110C948E
S113031056010C942601DB01CA018E569109A109EC
S1130320B1098339914CA140B10510F52550253010
S1130330F8F49A01AB0184E0220F331F441F551FC8
S11303408A95D1F760E070E488E390E00E94170298
S11303502150310941095109BB2757FDBA95A52FF1
S1130360942F832F80BD29B98CE98AB986E880BD92
S113037008955D9BFECF6CB908951F920F920FB63E
S11303800F9211248F93EF93FF93E09179008CB136
S1130390F0E0E658FF4F808380917A00833511F0B6
S11303A0833741F5809180008D3021F5809179006B
S11303B08630D0F41FC010927A0010927B00109205
S11303C07C0010927D0010927E0010927F001092AB
S11303D08000109279001092780011C08091790009
S11303E08F5F809379000BC081E080937800109236
S11303F0790005C0809179008630E8F6EFCFFF914F
S1130400EF918F910F900FBE0F901F90189528E0D9
S113041040E855E260E070E087E790E00C948B01DF
S11304201AB80895FC01828193810C948601A1E29B
S11304301A2EAA1BBB1BFD010DC0AA1FBB1FEE1F5A
S1130440FF1FA217B307E407F50720F0A21BB30BA5
S1130450E40BF50B661F771F881F991F1A9469F721
S113046060957095809590959B01AC01BD01CF017D
S11304700895EE0FFF1F0590F491E02D099410E00C
S1130480CAE5D0E004C0FE010E943B022296C036B9
S10B0490D107C9F7F894FFCF6E
S11304984239393939004639393939005439393901
S10504A8390015
S9030000FC
