:100000000C942C000C9454000C9454000C94540048
:100010000C9454000C9454000C9454000C94540010
:100020000C9454000C9454000C9454000C94540000
:100030000C9454000C94D9000C9454000C9454006B
:100040000C9454000C9454000C9454000C945400E0
:100050000C94540023012C0111241FBECFE5D8E0DD
:10006000DEBFCDBF10E0A0E6B0E0E6ECF2E002C0FB
:1000700005900D92A237B107D9F720E0A2E7B0E0D2
:1000800001C01D92AC37B207E1F710E0C6E5D0E041
:1000900004C02297FE010E945201C435D107C9F75E
:1000A0000E9456000C9456010C940000CF93DF93ED
:1000B000CDB7DEB761970FB6F894DEBF0FBECDBFE8
:1000C00010927400109273008FEF87BB88BB81E1A0
:1000D000E0E6F0E0DE01119601900D928A95E1F7DD
:1000E000BE016F5F7F4F82E790E00E94C00078946E
:1000F000809173008130E1F705E710E0F80161912C
:100100008F0182E790E00E94BC00F0E00C371F07EF
:10011000A9F71092730010927400EACFDB01CA01B4
:100120008E569109A109B1098339914CA140B105BD
:1001300010F525502530F8F49A01AB0184E0220F28
:10014000331F441F551F8A95D1F760E070E488E3A0
:1001500090E00E942E012150310941095109BB272D
:1001600057FDBA95A52F942F832F80BD29B98CE90F
:100170008AB986E880BD08955D9BFECF6CB908956D
:10018000FF920F931F93CF93DF93EC018B01F12C20
:1001900004C0CE010E94BC00F394F801EF0DF11DE4
:1001A00060816111F6CFDF91CF911F910F91FF9088
:1001B00008951F920F920FB60F9211248F93EF9311
:1001C000FF93E09174008CB1F0E0EB58FF4F808317
:1001D00080917500833511F0833741F580917B0064
:1001E0008D3021F5809174008630D0F41FC01092BC
:1001F000750010927600109277001092780010929D
:10020000790010927A0010927B0010927400109284
:10021000730011C0809174008F5F809374000BC0D5
:1002200081E0809373001092740005C08091740087
:100230008630E8F6EFCFFF91EF918F910F900FBED0
:100240000F901F90189528E040E855E260E070E0BC
:1002500082E790E00C948E001AB80895A1E21A2E5D
:10026000AA1BBB1BFD010DC0AA1FBB1FEE1FFF1F5A
:10027000A217B307E407F50720F0A21BB30BE40BAA
:10028000F50B661F771F881F991F1A9469F76095F1
:100290007095809590959B01AC01BD01CF010895AB
:1002A000EE0FFF1F0590F491E02D099410E0C6E5D4
:1002B000D0E004C0FE010E9452012296C835D10749
:0602C000C9F7F894FFCF1E
:1002C60043535320686F766564656E6865640D0AEE
:0202D600000026
:00000001FF
