S01400005A65726F43726F7373496E742E737265633B
S11300000C942F000C945B020C9457000C94570032
S11300100C9457000C9457000C9457000C94570000
S11300200C9457000C9457000C9457000C945700F0
S11300300C9457000C94D7000C9457000C94570060
S11300400C9457000C9457000C9457000C945700D0
S11300500C945700A10021013D02A5002A0111249E
S11300601FBECFE5D8E0DEBFCDBF10E0A0E6B0E014
S1130070E6EDF5E002C005900D92AA36B107D9F776
S113008020E0AAE6B0E001C01D92AC3EB207E1F761
S113009010E0CAE5D0E004C02297FE010E94DA0213
S11300A0C435D107C9F70E9441020C94DE020C94B6
S11300B00000FC011082118220E030E0FC01E20F1C
S11300C0F31F12822F5F3F4F24373105B9F708958C
S11300D0FC018081DB019C91DF01A80FB11D129608
S11300E09C938F5F64E70E94AA029083CF010895D6
S11300F0FC019181DF01A90FB11D12962C91892F6A
S11301008F5F64E70E94AA029183822F089580E2A0
S113011081BB80E48FBD88E08EBD8EE090E09BBD06
S11301208ABD08951FBC88E08EBDC598089580E4FB
S11301308FBD89E08EBD08951FBC88E08EBDC59833
S113014008958AE690E00C9487008AE690E00C9487
S11301509200DB01CA018E569109A109B1098339C4
S1130160914CA140B10510F525502530F8F49A01C1
S1130170AB0184E0220F331F441F551F8A95D1F72A
S113018060E070E488E390E00E94B60221503109F7
S113019041095109BB2757FDBA95A52F942F832FE9
S11301A080BD29B98CE98AB986E880BD08951F927B
S11301B00F920FB60F9211248F93EF93FF93E09158
S11301C06D008CB1F0E0E259FF4F808380916E00A6
S11301D0833511F0833741F5809174008D3021F51A
S11301E080916D008630D0F41FC010926E00109282
S11301F06F001092700010927100109272001092B1
S113020073001092740010926D0010926C0011C073
S113021080916D008F5F80936D000BC081E08093AF
S11302206C0010926D0005C080916D008630E8F678
S1130230EFCFFF91EF918F910F900FBE0F901F9012
S1130240189528E040E855E260E070E08BE690E025
S11302500C94A9001AB80895CF93DF93EC010E947F
S11302605900CA58DF4F1882DF91CF9108958A58F8
S11302709F4FFC0180810895FC01EA58FF4F808163
S1130280882311F08150808308958BB780648BBFDD
S113029085B7816085BF85B78D7F85BF78940895C4
S11302A08BB78F7B8BBF08950C947800FB01403390
S11302B019F4408381E304C0413319F4408380E39B
S11302C081833296CF010895FF920F931F93CF93AA
S11302D0DF938C01FA0181E380838183828390E33D
S11302E09383948385839683878380879187DB01B7
S11302F08C91813611F0813469F480E3828791E333
S1130300938794878587CF010E96EB01219624E08D
S1130310F22E0CC0843629F0843419F0CA010A96EE
S1130320F4CF91E3928780E38387EBCF4991BC01BB
S1130330C8010E945601FA94C9F7FC0186E090E3D3
S113034091938150E9F7DF91CF911F910F91FF9025
S113035008959F92AF92BF92CF92DF92EF92FF9255
S11303600F931F93CF93DF93CDB7DEB76D970FB67F
S1130370F894DEBF0FBECDBF8C01EE24E394F12CC4
S1130380EC0EFD1EA7010E94640142E0B42E9E2CD7
S1130390AF2C6E018DE1C80ED11C0CC0B701C80191
S11303A00E9468008FEFE81AF80AEC14FD04B1F714
S11303B0BA9419F0E92CFA2CF1CF1D8EBE01635EBC
S11303C07F4FC8010E946800F801EA58FF4F8081FE
S11303D08F5F8083C8010E9445016D960FB6F89423
S11303E0DEBF0FBECDBFDF91CF911F910F91FF9064
S11303F0EF90DF90CF90BF90AF909F900895CF93F0
S1130400DF9300D000D01F92CDB7DEB7FB0124E606
S1130410298320812A8321812B8322812C83238198
S11304202D83BE016F5F7F4F0E94A9010F900F9033
S11304300F900F900F90DF91CF910895CF93DF939A
S113044000D000D01F92CDB7DEB7FB0121E629838F
S113045020812A8321812B8322812C8323812D8354
S1130460BE016F5F7F4F0E94A9010F900F900F9004
S11304700F900F90DF91CF91089585E790E00C9451
S11304802C0160E670E085E790E00E941E0265E6BC
S113049070E085E790E00E94FF018FEF87BB88BB87
S11304A018BAE3E3F7E03197F1F788BBE3E3F7E049
S11304B03197F1F7F5CF1F920F920FB60F921124D7
S11304C02F933F934F935F936F937F938F939F9358
S11304D0AF93BF93EF93FF9385E790E00E943701BA
S11304E0882319F185E790E00E945401803331F4A8
S11304F089E993E00197F1F700C01BC0813371F4DF
S11305008AE690E00E94970089E993E00197F1F769
S113051000C08AE690E00E949C000BC0811109C0D3
S113052085E790E00E943C0104C085E790E00E94CA
S11305305001FF91EF91BF91AF919F918F917F9166
S11305406F915F914F913F912F910F900FBE0F903C
S11305501F901895991B79E004C0991F961708F00D
S1130560961B881F7A95C9F780950895A1E21A2EE3
S1130570AA1BBB1BFD010DC0AA1FBB1FEE1FFF1F43
S1130580A217B307E407F50720F0A21BB30BE40B93
S1130590F50B661F771F881F991F1A9469F76095DA
S11305A07095809590959B01AC01BD01CF01089594
S11305B0EE0FFF1F0590F491E02D099410E0CAE5B9
S11305C0D0E004C0FE010E94DA022296CE35D107A3
S10905D0C9F7F894FFCF07
S10D05D63031303100303031310093
S9030000FC
