S0120000436972634275666665722E7372656337
S11300000C942C000C9449000C9449000C94490065
S11300100C9449000C9449000C9449000C94490038
S11300200C9449000C9449000C9449000C94490028
S11300300C9449000C94A4010C9449000C944900BC
S11300400C9449000C9449000C9449000C94490008
S11300500C944900EE01F70111241FBECFE5D8E04E
S1130060DEBFCDBF20E0A0E6B0E001C01D92AA36FD
S1130070B207E1F710E0C6E5D0E004C02297FE0124
S11300800E942902C435D107C9F70E944B000C9481
S11300902D020C940000CF93DF93CDB7DEB7C85781
S11300A0D1090FB6F894DEBF0FBECDBF8E010F5F2E
S11300B01F4FC8010E943E0128E040E855E260E07D
S11300C070E0CE0188589F4F0E9472017E0187E73D
S11300D0E80EF11C81E4F7018083C8010E946C01E1
S11300E0682F605DCE0188589F4F0E94A00160E296
S11300F0CE0188589F4F0E94A001C8010E946F0141
S1130100682F605DCE0188589F4F0E94A0016AE06D
S1130110CE0188589F4F0E94A001B701C8010E94D8
S11301204D01C8010E946C01682F605DCE018858A2
S11301309F4F0E94A00160E2CE0188589F4F0E9409
S1130140A001C8010E946F01682F605DCE0188582C
S11301509F4F0E94A0016AE0CE0188589F4F0E94E1
S1130160A001C8010E945D01682FCE0188589F4FED
S11301700E94A0016AE0CE0188589F4F0E94A0010E
S1130180C8010E946C01682F605DCE0188589F4FA2
S11301900E94A00160E2CE0188589F4F0E94A001F6
S11301A0C8010E946F01682F605DCE0188589F4F7F
S11301B00E94A0016AE0CE0188589F4F0E94A001CE
S11301C082E4F7018083C12CD12C07C0B701C80198
S11301D00E944D01FFEFCF1ADF0A8EEAC816D10440
S11301E0A9F783E4F7018083B701EE24E394F12CAB
S11301F0EC0EFD1EC7010E944D01C7010E946C0157
S1130200682F605D8E0108581F4FC8010E94A0012D
S113021060E2C8010E94A001C7010E946F01682F1B
S1130220605DC8010E94A0016AE0C8010E94A001AB
S1130230C7010E945D01D82E682FC8010E94A00149
S1130240F3E4DF12F5CF6AE0C8010E94A001C70100
S11302500E946C01682FC8010E94A00160E2C801DD
S11302600E94A001C7010E946F01682FC8010E946B
S1130270A0016AE0C8010E94A001FFCFFC01108226
S1130280118220E030E0FC01E20FF31F12822F5FA5
S11302903F4F24373105B9F70895FC018081DB0114
S11302A09C91DF01A80FB11D12969C938F5F64E7A8
S11302B00E94F9019083CF010895FC019181DF012F
S11302C0A90FB11D12962C91892F8F5F64E70E94AC
S11302D0F9019183822F0895FC0180810895FC0126
S11302E081810895DB01CA018E569109A109B109E2
S11302F08339914CA140B10510F525502530F8F40F
S11303009A01AB0184E0220F331F441F551F8A95C5
S1130310D1F760E070E488E390E00E940502215088
S1130320310941095109BB2757FDBA95A52F942FCF
S1130330832F80BD29B98CE98AB986E880BD0895E8
S11303405D9BFECF6CB908951F920F920FB60F926A
S113035011248F93EF93FF93E09162008CB1F0E04E
S1130360ED59FF4F808380916300833511F083370B
S113037041F5809169008D3021F5809162008630CD
S1130380D0F41FC0109263001092640010926500B4
S11303901092660010926700109268001092690033
S11303A0109262001092610011C0809162008F5F10
S11303B0809362000BC081E0809361001092620020
S11303C005C0809162008630E8F6EFCFFF91EF918F
S11303D08F910F900FBE0F901F90189528E040E862
S11303E055E260E070E080E690E00C9472011AB887
S11303F00895991B79E004C0991F961708F0961B7D
S1130400881F7A95C9F780950895A1E21A2EAA1B30
S1130410BB1BFD010DC0AA1FBB1FEE1FFF1FA217B0
S1130420B307E407F50720F0A21BB30BE40BF50BAD
S1130430661F771F881F991F1A9469F76095709536
S1130440809590959B01AC01BD01CF010895EE0FFD
S1130450FF1F0590F491E02D099410E0C6E5D0E06B
S113046004C0FE010E9429022296C835D107C9F7AB
S1070470F894FFCF2A
S9030000FC
